{
  "_format": "hh-sol-artifact-1",
  "contractName": "Chai",
  "sourceName": "contracts/Chai.sol",
  "abi": [
    {
      "inputs": [],
      "stateMutability": "nonpayable",
      "type": "constructor"
    },
    {
      "inputs": [],
      "name": "notOwner",
      "type": "error"
    },
    {
      "inputs": [
        {
          "internalType": "string",
          "name": "_name",
          "type": "string"
        },
        {
          "internalType": "string",
          "name": "_message",
          "type": "string"
        }
      ],
      "name": "buyChai",
      "outputs": [],
      "stateMutability": "payable",
      "type": "function"
    },
    {
      "inputs": [],
      "name": "getMemos",
      "outputs": [
        {
          "components": [
            {
              "internalType": "string",
              "name": "name",
              "type": "string"
            },
            {
              "internalType": "string",
              "name": "message",
              "type": "string"
            },
            {
              "internalType": "uint256",
              "name": "timestamp",
              "type": "uint256"
            },
            {
              "internalType": "address",
              "name": "from",
              "type": "address"
            }
          ],
          "internalType": "struct Chai.Memo[]",
          "name": "",
          "type": "tuple[]"
        }
      ],
      "stateMutability": "view",
      "type": "function"
    }
  ],
  "bytecode": "0x608060405234801561001057600080fd5b5033600160006101000a81548173ffffffffffffffffffffffffffffffffffffffff021916908373ffffffffffffffffffffffffffffffffffffffff160217905550610cfa806100616000396000f3fe6080604052600436106100295760003560e01c80636a13d8591461002e578063865c51721461004a575b600080fd5b610048600480360381019061004391906105cf565b610075565b005b34801561005657600080fd5b5061005f61037d565b60405161006c9190610866565b60405180910390f35b3373ffffffffffffffffffffffffffffffffffffffff16600160009054906101000a900473ffffffffffffffffffffffffffffffffffffffff1673ffffffffffffffffffffffffffffffffffffffff16146100fc576040517f251c9d6300000000000000000000000000000000000000000000000000000000815260040160405180910390fd5b6000341161013f576040517f08c379a0000000000000000000000000000000000000000000000000000000008152600401610136906108e5565b60405180910390fd5b6000600160009054906101000a900473ffffffffffffffffffffffffffffffffffffffff1673ffffffffffffffffffffffffffffffffffffffff164760405161018790610936565b60006040518083038185875af1925050503d80600081146101c4576040519150601f19603f3d011682016040523d82523d6000602084013e6101c9565b606091505b505090508061020d576040517f08c379a000000000000000000000000000000000000000000000000000000000815260040161020490610997565b60405180910390fd5b6000604051806080016040528087878080601f016020809104026020016040519081016040528093929190818152602001838380828437600081840152601f19601f82011690508083019250505050505050815260200185858080601f016020809104026020016040519081016040528093929190818152602001838380828437600081840152601f19601f8201169050808301925050505050505081526020014281526020013373ffffffffffffffffffffffffffffffffffffffff168152509080600181540180825580915050600190039060005260206000209060040201600090919091909150600082015181600001908161030c9190610bf2565b5060208201518160010190816103229190610bf2565b506040820151816002015560608201518160030160006101000a81548173ffffffffffffffffffffffffffffffffffffffff021916908373ffffffffffffffffffffffffffffffffffffffff16021790555050505050505050565b60606000805480602002602001604051908101604052809291908181526020016000905b8282101561055757838290600052602060002090600402016040518060800160405290816000820180546103d490610a15565b80601f016020809104026020016040519081016040528092919081815260200182805461040090610a15565b801561044d5780601f106104225761010080835404028352916020019161044d565b820191906000526020600020905b81548152906001019060200180831161043057829003601f168201915b5050505050815260200160018201805461046690610a15565b80601f016020809104026020016040519081016040528092919081815260200182805461049290610a15565b80156104df5780601f106104b4576101008083540402835291602001916104df565b820191906000526020600020905b8154815290600101906020018083116104c257829003601f168201915b50505050508152602001600282015481526020016003820160009054906101000a900473ffffffffffffffffffffffffffffffffffffffff1673ffffffffffffffffffffffffffffffffffffffff1673ffffffffffffffffffffffffffffffffffffffff1681525050815260200190600101906103a1565b50505050905090565b600080fd5b600080fd5b600080fd5b600080fd5b600080fd5b60008083601f84011261058f5761058e61056a565b5b8235905067ffffffffffffffff8111156105ac576105ab61056f565b5b6020830191508360018202830111156105c8576105c7610574565b5b9250929050565b600080600080604085870312156105e9576105e8610560565b5b600085013567ffffffffffffffff81111561060757610606610565565b5b61061387828801610579565b9450945050602085013567ffffffffffffffff81111561063657610635610565565b5b61064287828801610579565b925092505092959194509250565b600081519050919050565b600082825260208201905092915050565b6000819050602082019050919050565b600081519050919050565b600082825260208201905092915050565b60005b838110156106b657808201518184015260208101905061069b565b60008484015250505050565b6000601f19601f8301169050919050565b60006106de8261067c565b6106e88185610687565b93506106f8818560208601610698565b610701816106c2565b840191505092915050565b6000819050919050565b61071f8161070c565b82525050565b600073ffffffffffffffffffffffffffffffffffffffff82169050919050565b600061075082610725565b9050919050565b61076081610745565b82525050565b6000608083016000830151848203600086015261078382826106d3565b9150506020830151848203602086015261079d82826106d3565b91505060408301516107b26040860182610716565b5060608301516107c56060860182610757565b508091505092915050565b60006107dc8383610766565b905092915050565b6000602082019050919050565b60006107fc82610650565b610806818561065b565b9350836020820285016108188561066c565b8060005b85811015610854578484038952815161083585826107d0565b9450610840836107e4565b925060208a0199505060018101905061081c565b50829750879550505050505092915050565b6000602082019050818103600083015261088081846107f1565b905092915050565b600082825260208201905092915050565b7f4d757374206265206772656174207468616e2030000000000000000000000000600082015250565b60006108cf601483610888565b91506108da82610899565b602082019050919050565b600060208201905081810360008301526108fe816108c2565b9050919050565b600081905092915050565b50565b6000610920600083610905565b915061092b82610910565b600082019050919050565b600061094182610913565b9150819050919050565b7f4572726f7220647572696e672073656c6c696e672074686520616d6f756e7400600082015250565b6000610981601f83610888565b915061098c8261094b565b602082019050919050565b600060208201905081810360008301526109b081610974565b9050919050565b7f4e487b7100000000000000000000000000000000000000000000000000000000600052604160045260246000fd5b7f4e487b7100000000000000000000000000000000000000000000000000000000600052602260045260246000fd5b60006002820490506001821680610a2d57607f821691505b602082108103610a4057610a3f6109e6565b5b50919050565b60008190508160005260206000209050919050565b60006020601f8301049050919050565b600082821b905092915050565b600060088302610aa87fffffffffffffffffffffffffffffffffffffffffffffffffffffffffffffffff82610a6b565b610ab28683610a6b565b95508019841693508086168417925050509392505050565b6000819050919050565b6000610aef610aea610ae58461070c565b610aca565b61070c565b9050919050565b6000819050919050565b610b0983610ad4565b610b1d610b1582610af6565b848454610a78565b825550505050565b600090565b610b32610b25565b610b3d818484610b00565b505050565b5b81811015610b6157610b56600082610b2a565b600181019050610b43565b5050565b601f821115610ba657610b7781610a46565b610b8084610a5b565b81016020851015610b8f578190505b610ba3610b9b85610a5b565b830182610b42565b50505b505050565b600082821c905092915050565b6000610bc960001984600802610bab565b1980831691505092915050565b6000610be28383610bb8565b9150826002028217905092915050565b610bfb8261067c565b67ffffffffffffffff811115610c1457610c136109b7565b5b610c1e8254610a15565b610c29828285610b65565b600060209050601f831160018114610c5c5760008415610c4a578287015190505b610c548582610bd6565b865550610cbc565b601f198416610c6a86610a46565b60005b82811015610c9257848901518255600182019150602085019450602081019050610c6d565b86831015610caf5784890151610cab601f891682610bb8565b8355505b6001600288020188555050505b50505050505056fea2646970667358221220f1250965596e6c7942c1678c192b331ec2961c183152f60ddf8e156981d8e8db64736f6c63430008180033",
  "linkReferences": {},
  "deployedLinkReferences": {}
}